:020000021000EC
:1090000000600020E9A101003DA201003FA2010093
:1090100041A2010043A2010045A20100000000009E
:1090200000000000000000000000000047A2010056
:1090300049A20100000000004BA201004DA2010066
:109040004FA201004FA201004FA201004FA2010058
:109050004FA20100000000004FA201004FA201003A
:109060004FA201004FA201004FA201004FA2010038
:109070004FA201004FA201004FA201004FA2010028
:109080004FA20100619D01004FA201004FA201000B
:109090004FA201004FA201001DAC01004FA2010030
:1090A0004FA201004FA201000000000000000000DC
:1090B0004FA201004FA201000000000000000000CC
:1090C00000000000000000000000000000000000A0
:1090D0000000000000000000000000000000000090
:1090E0000000000000000000000000000000000080
:1090F0000000000000000000000000000000000070
:10910000000000000000000000000000000000005F
:10911000000000000000000000000000000000004F
:10912000000000000000000000000000000000003F
:10913000000000000000000000000000000000002F
:10914000000000000000000000000000000000001F
:10915000000000000000000000000000000000000F
:1091600000000000000000000000000000000000FF
:1091700000000000000000000000000000000000EF
:1091800000000000000000000000000000000000DF
:1091900000000000000000000000000000000000CF
:1091A00000000000000000000000000000000000BF
:1091B00000000000000000000000000000000000AF
:1091C000000000000000000000000000000000009F
:1091D000000000000000000000000000000000008F
:1091E000000000000000000000000000000000007F
:1091F000000000000000000000000000000000006F
:1092000010B5054C237833B9044B13B10448AFF3C0
:1092100000800123237010BD541B002000000000BB
:10922000C8AE010008B5034B1BB103490348AFF3B7
:10923000008008BD00000000581B0020C8AE0100DF
:10924000154B002B08BF134B9D46A3F5803A002118
:109250008B460F461348144A121A01F0D2FD0F4BE9
:10926000002B00D098470E4B002B00D098470020D1
:10927000002104000D000D48002802D00C48AFF377
:10928000008001F08FFD2000290000F0CBFA01F0F2
:1092900075FD00BF00000800006000200000000015
:1092A00000000000541B00200C1C002000000000E7
:1092B0000000000072DF704773DF704776DF704791
:1092C0007ADF70477CDF70477FDF70478FDF704742
:1092D000A8DF7047AADF7047ACDF7047AEDF70478A
:1092E000B1DF7047B5DF704762DF704733DF70472B
:1092F00041DF70470068704708B5064B01211878B8
:10930000FFF7DAFF08B101F037F9BDE8084000F0D7
:1093100007BD00BFE01A00202DE9F04F1E4693B0B4
:10932000344BADF808004FF0000B1B788DF80A3075
:109330008A46914659461C2203AC0BA89DF87080C2
:10934000BDF87450CDF80CB0C4E901BB01AF01F019
:1093500058FD03225946684601F053FD0322594641
:10936000384601F04EFD1422594606A801F049FD89
:109370009DF82C2066F341026AF3C30269F382026E
:1093800068F304128DF82C20B8F1000F0BD041F2D5
:109390001113ADF804309DF806301097012262F3E6
:1093A00042038DF8063041F21113ADF800309DF8FC
:1093B00002301148CDF81CD003F0F80343F003034A
:1093C000002E8DF8023002AB069312BF2B4600230D
:1093D0000024ADF8203006AA1E9B0088ADF824506A
:1093E0000BA90A94FFF776FF08B101F0C5F813B096
:1093F000BDE8F08FEE1B0020E01B002030B58BB0E5
:109400000023ADF80E3001238DF80C302B4B2C4C83
:109410001B788DF80D302B4B21881B788DF80E3082
:10942000294B1B688DF810301A0A8DF811201A0C80
:109430001B0E8DF81330254B8DF812201B68DB4373
:109440001A0A8DF814308DF815201A0C1B0E8DF8A1
:1094500017300C238DF816200DEB030501AA4FF6EB
:10946000FF7001930295FFF737FF08B101F084F810
:10947000174B18884FF6FF7398421CD0154B1B787A
:10948000CBB10C23ADF802302388ADF8183001239E
:109490008DF81A300023ADF81C3006A90DF1020337
:1094A000CDE90835FFF71AFF30F0080203D0132882
:1094B00001D001F061F80BB030BD00BFE31B00200C
:1094C000E41B0020AD1B0020B41B0020E41A002088
:1094D000E21A0020EC1B002008B5054BFF221A7091
:1094E000044B187000F038FCBDE80840FFF786BF59
:1094F000E31B0020AD1B0020F7B503883B2B04467F
:1095000000F0648117D8132B00F0448105D8102B8C
:1095100039D0112B41D003B0F0BD212B00F0478191
:10952000262BF8D1AB4B1A884FF6FF739A42F2D133
:1095300000F012FC40E0552B00F042810BD8502B7C
:109540004ED0522BE7D1A34800231A461946008873
:10955000FFF7C6FE25E1562B00F03881572BDAD1F4
:109560009D4B1A78002AD6D09A4A10884FF6FF727F
:109570009042D0D000221A70984B01221A70132109
:10958000FFF79CFE0DE1934B82881A8000F0CBFB25
:1095900000F0DCFB924B1860BDE78E4B8F494FF615
:1095A000FF721A808F4B00221A708B4B1A708E4BF1
:1095B0001A700B7823B10A708C4B01221A70AAE73B
:1095C0008B4A13708B4A13708B4A13608B4B4FF08E
:1095D000FF321A608A4B01221A70FFF78DFE9AE75C
:1095E000884AC38812889A427DD1058A002D92D07C
:1095F00000F0ACFB7A4B1860A37C012B39D1102D05
:109600001CD1E37C012B19D1627D237D43EA022327
:10961000B3F5227F12D1E27DA37D43EA0223B3F5A5
:10962000F07F0BD1257E012D08D1637E33B904F183
:109630001A00FFF75FFE744A904203D00120FFF743
:109640004BFF68E76A4A15706A4A13706A4A04F168
:109650001E001360FFF74EFE6C4A1060674A4FF021
:10966000FF311160604A1370FFF7C8FE684B1D7030
:1096700051E7022B21D1012DE0D15D4C2378022B43
:1096800001D00520DBE75C4B1A685F4B9A42F8D1AA
:1096900003232370FFF7B2FE584B5C4A1B68126825
:1096A000DB43934201D00420C9E70423237000F078
:1096B00040FBFFF7A3FE574B7FE7032BBED1012DE5
:1096C000BCD14B4A002313704A4A13704A4A1360B4
:1096D0004A4B4FF0FF321A6000F03EFB484B1D70C2
:1096E000FFF78CFE17E74C4A12889A4243D1058A4D
:1096F00000F02CFB3A4B18603D4B1B78022BC0D17D
:10970000042DBED904F112003B4EFFF7F3FD336880
:10971000984201D0022092E7043DADB23A4B284472
:10972000984201D903208AE716342946204600F0E2
:1097300019FC3249DFF8E8C00B686719BC420BD14D
:109740000B603168294411F0FF0F3160C8D02E4BF7
:1097500099427FF4E0AEC3E714F8012B534008228E
:1097600043F30000013A00EA0C0012F0FF0280EA25
:109770005303F5D1E2E7294A92889A427FF4CBAEAF
:10978000038A022B7FF4C7AE123001F0A9F9154B02
:109790001870A5E70F4800231A4685210088FFF7B7
:1097A00093FD00283FF4B7AE00F0E6FEB3E602A951
:1097B000002321F8043D074B1888FFF787FDF0E7E9
:1097C000044B17211888FFF78DFDEAE7014B1321A1
:1097D0001888D5E6E21A0020AC1B0020E21B00200E
:1097E000BC1B0020EC1B00209A1B0020ED1B00205E
:1097F000E31B0020AD1B0020B41B0020E41A002056
:10980000701B00209C1B0020C02F0100B01B0020FB
:10981000C01B0020B81B0020A41B0020E41B00205C
:109820002083B8ED2DE9F04F4FF0A0430C22C3F890
:109830007027AFB0C3F8742700F0C2F9BD4C208088
:1098400000F03CFA01F09AF9A24608B100F094FE4B
:109850002EAC002344F8A83D0120214601F00EFA69
:1098600008B100F089FE204601F05EFA08B100F070
:1098700083FE2EAD112305F8783D0A22AE49284615
:10988000FFF720FD08B100F077FE082200211FA895
:1098900001F0B7FAA94A4FF0C8731FA8CDE91F23FA
:1098A000FFF70EFD08B100F067FEA54B03F11007AE
:1098B0001FAC3E4618685968224603C20833BB42B3
:1098C0001446F7D19F491FA8FFF70EFD08B100F01D
:1098D00053FE9C4F9C4A0023ADF828300AA93B78E0
:1098E0008DF82A300120FFF7F3FC08B100F044FEA8
:1098F000964B0293002401211023CDE90043224618
:1099000023460846FFF708FD914B029301221423DA
:10991000CDE90043114623460220FFF7FDFC8D4BA5
:1099200002934FF0010B0C2322462146CDE900B3F0
:1099300003205B46DFF850824FF00209FFF7ECFC92
:10994000224621465B460420CDE90049CDF8088037
:10995000FFF7E2FCFFF752FDBAF800308DF818303F
:1099600006AC1B0A2A46B8F800108DF819304FF6DD
:10997000FF70CDF840901194FFF7AEFC08B100F0F5
:10998000FBFD3C220021284601F03BFA3C2200214D
:109990001FA801F036FA0023ADF814303B788DF89B
:1099A000163002238DF8403006238DF84330012312
:1099B000ADF88C3005AB249396E80F0084E80F00D7
:1099C00007AA6549284600F0C2FE08B100F0D4FDA0
:1099D00009AA08991FA800F0BAFE08B100F0CCFD52
:1099E000182200210AA801F00CFA01238DF8283072
:1099F000A0230C9341F27073ADF834300AAA4FF4EF
:109A0000807321465548ADF83C30FFF753FC08B150
:109A100000F0B2FDFFF770FC514F524CDFF86C8143
:109A20003B781BB100233B7000F0BAFA98F8003085
:109A300063B1002388F8003000F0E0FA002871D00C
:109A40000223237000F072F9FFF7D8FC464BDFF8D1
:109A500040911A7872B100221A7000F08BFB002836
:109A600064D005232370FFF7C9FC00F065F90123DA
:109A700089F8003099F800303C4E3D4DB3B100F00C
:109A80005FF998B130884FF6FF730022984289F849
:109A900000204FF001037DD036490A70364A132169
:109AA0001370FFF70BFC30B100F066FD32884FF603
:109AB000FF739A4225D0DFF8C09099F8003003BBBD
:109AC0002378043B012B1CD900F040F92B4B1B6879
:109AD000C01AB0F5166F14D3FF232370284B07224A
:109AE0001A7000F05DFA00F037F9FFF787FC0123E8
:109AF0001321308889F80030FFF7E0FB08B100F04F
:109B00003BFD2B78002B47D000232B7000F024F96D
:109B10004FF0A0431B4AC3F87027C3F87427FFF720
:109B2000E5FBFEE70620FFF7D7FC8FE70620FFF7EF
:109B3000D3FC9FE7981B002050AE01000C001800DA
:109B400030AE0100EE1B0020E01B00209C1B00201B
:109B5000A41B0020E41B0020711B0020E01A002041
:109B6000701B0020E31B0020B81B0020E21A00201D
:109B7000ED1B0020AC1B0020E21B0020BC1B0020C2
:109B8000AD1B00200C000300901B0020C01B002018
:109B90009A1B00202B7089E7FFF7AAFB00283FF4EF
:109BA0003FAF00F0E9FC39E7044B02680AB9013B1A
:109BB000FBD10068003018BF01207047A18601006A
:109BC00037B5264C264802AB00210125022223F896
:109BD000021DC4F80055C4F8F0250922C4F8F41594
:109BE000C4F810254FF40032C4F81415C4F8182531
:109BF000C4F82C36C4F83056C4F800112560FFF7BD
:109C0000D3FF18B9C4F8000503B030BDC4F804117F
:109C100014486560FFF7C8FF08B9A560F2E7C4F80B
:109C200014111148A560FFF7BFFF0028EAD0C4F85F
:109C30000015BDF806301BB2002BC1BFBDF80600F1
:109C400040F2FF714FF4616310FB0310D1BF08466F
:109C500040F6FF71B0FBF1F080B2D5E70070004034
:109C600000710040047100401471004010B50F4BAA
:109C70000F4C002101225A609A60C3F840112180E4
:109C80000C4C21700C4908704FF0A0414FF4803407
:109C9000C1F808454FF40034C1F808454FF480245A
:109CA000C1F8084500B11A6010BD00BF00100140A6
:109CB000F21B0020EF1B0020F01B00204FF0A04300
:109CC000032210B54FF48031C3F840274FF48020B1
:109CD000C3F84427C3F848274FF40032C3F80815E7
:109CE000C3F80825C3F8080503F1704303F588336A
:109CF0000120586040F2666498600020C3F80805AF
:109D0000C3F84045C3F84001C3F80413034BC02116
:109D100083F81113C3F880211A6010BD00E100E040
:109D20000120FFF7A3BF0220FFF7A0BF0320FFF72A
:109D30009DBF0420FFF79ABF0520FFF797BF0000E3
:109D4000014B1878704700BFEF1B0020014B1868CB
:109D5000704700BFF41B00200020FFF787BF000002
:109D600070B54D48D0F840316BB30023C0F8403196
:109D70004A4A4B494B4C01238360136801331360FB
:109D80000A8892B2531C9BB20B802578013D4FF09C
:109D9000A0434FF480314FF40036042D77D8DFE82C
:109DA00005F003162F4653003C20C3F80815B2FBFC
:109DB000F0F100FB112292B2C3F808654FF4802144
:109DC00012B9C3F80C1570BDC3F80815FBE7012ADA
:109DD000C3F808150CD84FF0A0434FF40032C3F875
:109DE0000C254FF0A0434FF48022C3F80825EAE782
:109DF000043A012AEFD94FF40032C3F80825F0E7FE
:109E00001421B2FBF1F301FB132292B24FF0A043F5
:109E10004FF480304FF4003122B9C3F80C05C3F879
:109E20000C15DEE7C3F80805C3F80815D9E72820A4
:109E3000C3F80815B2FBF0F100FB112292B24FF407
:109E40000031002AF0D1EAE7C3F80815052A4FF4DB
:109E5000003194BFC3F80C15C3F808154FF0A043A8
:109E60004FF48021052AC3F80815ACD901224260BD
:109E7000002020704FF48030C3F808054FF4003004
:109E8000C3F80805C3F80815074B1A709BE7C3F819
:109E90000815C3F80865A6E700100140F41B002070
:109EA000F21B0020F01B0020EF1B00204FF040238E
:109EB0000022C3F80821C3F81C05D3F80821002AA2
:109EC000FBD0D3F8183570474FF0A04110B52023D0
:109ED0004024C1F80C35C1F80C45FFF7E7FFC1F885
:109EE000084510BD70B50E461446FFF7EDFF4FF064
:109EF000A0432022C3F80825013C4022C3F80C25CA
:109F0000751E56FA84F415F8010FFFF7CFFFA5422E
:109F1000F9D14FF0A0434022C3F8082570BD0000DE
:109F200038B5054D044645F001054FF47A40A84781
:109F3000013CFAD138BD00BF60AE0100FFF7F0BFB1
:109F400038B504464FF0A045D5F8100510F00800CC
:109F500001D0012038BD14F1FF34FBD30120FFF7FD
:109F6000DFFFF1E710B50D4B1B7804467BB14FF0D6
:109F7000A0432022C3F808254022C3F80C25014441
:109F80008C4205D14FF0A0434022C3F8082510BDF4
:109F900014F8010BFFF78AFFF2E700BFF91B00205E
:109FA000144A002313704FF04022C2F80035124AC1
:109FB0001178E1B14FF0A0438021C3F80C151021B6
:109FC000C3F80C150421C3F80C154021C3F80C1577
:109FD0002021C3F80C154FF40021C3F80C154FF4E1
:109FE0008011C3F80C154FF40001C3F80C150023C1
:109FF00013707047F91B0020F81B0020F8B5FFF71D
:10A00000CFFF4FF0A04303228021C3F81C27C3F8E1
:10A0100008150021C3F81027C3F80827C3F818272C
:10A02000C3F81427C3F80C17C3F84C27C3F85027FC
:10A03000C3F85C274FF40002C3F86017C3F8082583
:10A040000422C3F80C254022C3F808254FF0402213
:10A050001320C2F808051420C2F80C051820C2F815
:10A060001005C2F854154FF00041C2F82415012123
:10A07000C2F80015344A102611700A251C463746CE
:10A080002846C4F80875FFF759FF2846C4F80C6540
:10A09000FFF754FF2846C4F80865FFF74FFF05F1A6
:10A0A0003200FFF74DFF10B32846FFF747FF0222AB
:10A0B00026490020FFF716FF022225490120FFF75D
:10A0C00011FF032223490620FFF70CFFFA20FFF7B8
:10A0D00037FF0420FFF7F8FE4FF4FA60FFF730FF78
:10A0E000044640B9FFF75CFF00242046F8BD143554
:10A0F0006E2DC5D1F6E7012217494120FFF7F2FE88
:10A10000012216495020FFF7EDFE0122144960207C
:10A11000FFF7E8FE042213496120FFF7E3FE012266
:10A120001149E320FFF7DEFE01221049E520FFF789
:10A13000D9FE0A20FFF7F4FE1020FFF7C5FE0C4BF6
:10A1400001221A70D1E700BFF81B002067AE0100A2
:10A1500069AE01005BAE010071AE010072AE01009C
:10A1600070AE01006BAE01006FAE010066AE010083
:10A17000F91B002013B51B4B1C789CB10024112047
:10A180001C70FFF7A1FE02A9122001F8034D012265
:10A19000FFF7A8FE4CF25030FFF7D2FE28B9FFF7C8
:10A1A000FFFE0024204602B010BD02A9012201F8E2
:10A1B000024D0220FFF796FE4FF4FA60FFF7C0FE53
:10A1C00004460028EBD002A9A52301F8013D012295
:10A1D0000720FFF787FE6420FFF7A2FEFFF7E0FEEF
:10A1E000E0E700BFF91B00200E4800680E4909682F
:10A1F0000A280AD1002908D10C4802686FF07003C0
:10A200001A404FF040031A4302600949094A0A4BB9
:10A210009B1A03DD043BC858D050FBDC00F05CF80F
:10A22000FFF70EF83001001034010010E40E00407A
:10A23000ECAE0100E01A0020541B0020FEE7FEE710
:10A24000FEE7FEE7FEE7FEE7FEE7FEE7FEE7FEE7E6
:10A25000BFF34F8F0549064BCA6802F4E06213430F
:10A26000CB60BFF34F8F00BFFDE700BF00ED00E004
:10A270000400FA05074B1B78062B09D1064B1B6817
:10A28000C3F30313033B042B02D8044AD05C70478A
:10A2900000207047E00F00F0E80F00F07DAE0100F5
:10A2A000074B1868421C04BF064B1878062804D0D8
:10A2B000A0F10A035842584170470120704700BF7F
:10A2C00030010010E00F00F0024AD2F80034002BF9
:10A2D000FBD0704700E0014010B5914B1B685C1C3F
:10A2E00004BF904B1B78062B05D18F4B8F4A1B6800
:10A2F000C3F304231360FFF7BDFF10B18C4B8D4AED
:10A300001A60FFF7CDFF28B18B4B8C4A1B68C3F353
:10A3100042331360FFF7AEFF20B1894AD36823F0C0
:10A320008073D360FFF7BCFF40B14FF08043002241
:10A33000C3F80C21C3F81021C3F83825FFF79AFFA2
:10A3400010B1804B03221A60FFF794FF40B17E4B9F
:10A3500005221A6001229A6700229A603F225A6001
:10A360006F4B1A68501C0BBF6E4B784B1A781B68EA
:10A3700002BF08331B68C3F30313062A4ED1033B05
:10A38000042B03D8724AD35C002B49D04FF0805283
:10A39000704BD2F80414C3F82015D2F80814C3F88F
:10A3A0002415D2F80C14C3F82815D2F81014C3F8E9
:10A3B0002C15D2F81414C3F83015D2F81814C3F8B9
:10A3C0003415D2F81C14C3F84015D2F82014C3F881
:10A3D0004415D2F82414C3F84815D2F82814C3F849
:10A3E0004C15D2F82C14C3F85015D2F83014C3F819
:10A3F0005415D2F83414C3F86015D2F83814C3F8E1
:10A400006415D2F83C14C3F86815D2F84014C3F8A8
:10A410006C15D2F84424C3F8702501E00A2AB5D09F
:10A420003F4B1B68591C04BF3E4B1B78062B05D1C4
:10A43000494B4A4A1B6803F04F031360FFF730FF94
:10A4400048B14FF08043D3F80024D20744BF6FF0E7
:10A450000102C3F80024324B1B68062B0CD13B4B86
:10A460001B68033B042B02D83D4AD35C23B13D4A11
:10A47000136843F480631360294B1B680A2B07D1D0
:10A48000324B1B6823B1354A136843F00F03136046
:10A49000234B1B68062B0CD12C4B1B68033B032B57
:10A4A00081BF4FF01023D3F808224FF08043C3F848
:10A4B00058254FF01023D3F80022002A03DBD3F8ED
:10A4C0000432002B17DA28490123C1F80435FFF7BD
:10A4D000FBFE4FF010201524C0F80042FFF7F4FEF9
:10A4E000C0F80442FFF7F0FE0023C1F80435FFF77F
:10A4F000EBFEFFF7ADFE1D4C2368DB070CD51A49B8
:10A500000123C1F80435FFF7DFFE00202060FFF7CC
:10A51000DBFEC1F80405EAE7154B164A1A6010BDC8
:10A5200030010010E00F00F024030010403501401E
:10A5300074C007400DF0ADBA440200103C05004065
:10A54000F0ED00E0A005004010560040340100107E
:10A5500073AE010000C0004058020010E40E00403D
:10A5600078AE01003C17004000E001400C120010E2
:10A57000E81A00200090D0031FB50021039001AA23
:10A5800044F20100CDE9011100F004F805B05DF8D6
:10A5900004FB000072B6094B1B68DB0700D500BE48
:10A5A000BFF34F8F0649074BCA6802F4E0621343BA
:10A5B000CB60BFF34F8F00BFFDE700BFF0ED00E0C1
:10A5C00000ED00E00400FA0570B5EFF3108672B6F6
:10A5D0000C4A946801239CB993600B4B0B4DD3F844
:10A5E000801029401160C3F88050D3F88410516066
:10A5F0004FF0FF32C3F88420047006B962B670BD14
:10A600000370FAE7001C002000E100E0FC06FFBD3B
:10A6100010B5084B9A685AB150B9EFF3108172B671
:10A62000054A1C6814605C685460986001B962B6A1
:10A6300010BD00BF001C002000E100E001600B68BD
:10A6400043604A68934204BF0023436070474368F5
:10A6500043B1026891680B4443605268934204BF5F
:10A660000023436070476DDF704779DF70477DDFFF
:10A67000704764DF70472DE9F74F0C9CBDF834B08C
:10A680002788002580468A4691462E46B8F8002045
:10A69000B2420BDC35B12288013AD21B92B2FF2ABA
:10A6A00039D8DA55002003B0BDE8F08FD8F804207F
:10A6B00052F82600019000220DF1030101A8FFF7D6
:10A6C000D8FF0028EFD19DF803204A4521D12288E8
:10A6D000002D14BF0020022002EB0901014459455E
:10A6E00019DC3DB9013292B2228003F802A022881F
:10A6F0000132228022880DF103011A4401A8FFF7DC
:10A70000B8FF0028CFD121889DF803200A44228079
:10A7100001250136BAE70C20C5E72DE9F341089C75
:10A72000BDF824501746CDE9004502220646FFF742
:10A73000A2FF48B9102239463046CDE9084502B09B
:10A74000BDE8F041FFF797BF02B0BDE8F0812DE909
:10A75000F04F00231688138090F82D3085B00746FF
:10A760000D46144653B3082E01D80C2026E102A84A
:10A77000FFF779FF002840F0218113880822CA548E
:10A78000238801339BB21B222380CA5420880130C6
:10A7900080B2208006220DF10901284400F026FB3A
:10A7A00023889DF8082006339BB212F0FE0218BFE2
:10A7B00001222380EA54238801332380BB78FBB134
:10A7C00023880433B342D0D802A8FFF74EFF0028F5
:10A7D00040F0F48023880322EA54238801339BB29B
:10A7E00019222380EA542388BDF8082001339BB244
:10A7F000E9182380EA54120A4A702388023323801E
:10A80000FA789AB12388D91CB142AED80221E95412
:10A81000238801339BB201212380E95423880B4410
:10A820009BB22380EA5423880B4423807A68AAB120
:10A830002388D91CB14298D8022192F90020E9540A
:10A84000238801339BB20A212380E95423880133F2
:10A850009BB22380EA542388013323803B89002B59
:10A8600040F0A0803B8A5BB1CDE900462B46072231
:10A87000032107F11000FFF750FF002840F09E80F1
:10A880003B8B5BB1CDE900462B461522142107F125
:10A890001800FFF742FF002840F090803A6A002A33
:10A8A00040F08F80D7F82480B8F1000F30D0B8F88E
:10A8B00004302188981C8A1C0244B2423FF655AFEE
:10A8C000FE283FF652AF03336B54238801339BB20B
:10A8D000FF222380EA54238801339BB22380B8F8F7
:10A8E0000020EA54E918120A4A702088023080B227
:10A8F0002080B8F804205AB1D8F8081000296AD08E
:10A90000284400F073FA2388B8F804201344238005
:10A9100097F82C30002B40F09980387800284DD0E3
:10A920003B88012B57D021888A1CB2423FF61DAFCD
:10A93000012805D17B7802330B449E42FFF415AF0A
:10A94000023E761A04A9B6B221F8086DA818FFF7DE
:10A950008EFE98BB3978BDF80820022900F0BB8034
:10A960007B78934202D3B24240F2B380012940F097
:10A97000B4809BB29E42C0F0B080ADF80830082190
:10A98000BDF80830FE2B3FF6F0AE22880133AB5401
:10A990002288013292B22280A95422881344238053
:10A9A00000200BE0CDE900462B460622022107F1EC
:10A9B0000800FFF7B2FE00283FF454AF05B0BDE831
:10A9C000F08FB4F800C00CF10603B3423FF6CDAEF1
:10A9D0001188052901D80720F0E76FF4486E01EBD4
:10A9E0000E039BB24FF27D3E7345F4D95388052B7D
:10A9F000F1D96FF44860181880B27045EBD94FF662
:10AA0000FF70814203D0834201D09942E3D80523ED
:10AA100005F80C30238801339BB212212380E954BE
:10AA2000238801339BB223801188E954E818090A6E
:10AA30004170238802339BB223805288EA54E9187C
:10AA4000120A4A702388023323802BE7BB6A002B4B
:10AA5000C1D04FF000094FF00C0A4FF0160B97F8D9
:10AA60002C305FFA89F293427FF657AFB96A0AFB3E
:10AA700002F201EB0208B8F80430981CFE283FF6F9
:10AA800074AE208803332B54238801339BB2238078
:10AA900005F803B0238801339BB223808A5AEA5415
:10AAA000E918120A4A702088023080B22080B8F873
:10AAB00004205AB1D8F8081000298CD0284400F09E
:10AAC00095F92388B8F804201344238009F101097B
:10AAD000C5E7092154E7B242FBD9ADF808604EE75B
:10AAE000007800F00100704710DF704713B504468E
:10AAF00009496846FFF7A2FD019808B902B010BDE8
:10AB0000D0E900312046984718B16846FFF79FFD0D
:10AB1000F2E71120F2E700BF88AE010013B504464A
:10AB200007496846FFF78AFD019B0BB902B010BDCB
:10AB30002046D3E9002190476846FFF788FDF3E7F8
:10AB4000A0AE01000B4991F816335A09EC231341CA
:10AB5000DB0706D5084B9A683AB94FF480030B60BF
:10AB6000704742F20200FFF707BD1A6842F4800204
:10AB70001A60704700E100E0001C0020F7B5184F94
:10AB80003C785CBB174E012520463570FFF7AEFFC1
:10AB9000112820D02046FFF7C1FF134B1868019001
:10ABA00002A800F8054DFFF70FFD104901A8FFF7B7
:10ABB0009BFF0446B0FA80F0400938709DF803000E
:10ABC000FFF726FD3CB90A4B34701C70FFF7BAFF43
:10ABD0002846FFF7A3FF204603B0F0BD0824FAE79C
:10ABE000FB1B0020FA1B002082AE010095A501008E
:10ABF000FC1B002007B508496846FFF71FFD019BB5
:10AC000013B903B05DF804FBD3E900209047684610
:10AC1000FFF71DFDF3E700BF94AE0100FFF7EABFA9
:10AC200060DF704769DF704761DF704730B5114BF7
:10AC30001B7891B0E3B1104D34240DF1020103A84B
:10AC4000ADF80240FFF7F0FF70B9294601A8FFF701
:10AC5000F5FC029B002BF0D003A8D3E9002190471C
:10AC600001A8FFF7F4FCF4E7052801D0FFF784FC06
:10AC700011B030BDFD1B0020ACAE010030B5054663
:10AC800085B00C4600294BD0264B0B600C220021CE
:10AC900001A800F0B6F806238DF804502268ADF83C
:10ACA0000830012501A920208DF80650FFF7BAFFD2
:10ACB0000C22002101A800F0A4F822688DF80550AC
:10ACC00001A94020FFF7AEFF0C22002101A800F0EF
:10ACD00098F822688DF8045001A92846FFF7A2FFD2
:10ACE0000C22002101A800F08CF84FF4B063226818
:10ACF000019301A9A120FFF795FF0C22002101A8D3
:10AD000000F07FF89DF8043022686FF3000301A97A
:10AD1000A0208DF80430FFF785FF002005B030BD7E
:10AD20000E20FBE7E01A002008B5FFF779FF10B905
:10AD3000014B01221A7008BDFD1B00204BDF70473C
:10AD40001FB50D4C01A8FFF7F9FF70B9214602A805
:10AD5000FFF774FC039B002BF4D00198D3E900218A
:10AD6000904702A8FFF773FCF4E7052801D0FFF72E
:10AD700003FC04B010BD00BFB8AE010008B5074B1E
:10AD8000044613B10021AFF30080054B1868836AB5
:10AD900003B19847204600F03DF800BF00000000D6
:10ADA000C4AE010070B50D4E0D4CA41BA4100025BF
:10ADB000A54209D10B4E0C4C00F02EF8A41BA41098
:10ADC0000025A54205D170BD56F8253098470135BC
:10ADD000EEE756F8253098470135F2E74C1B002086
:10ADE0004C1B00204C1B0020501B002010B5431EA4
:10ADF0000A44914200D110BD11F8014B03F8014FF4
:10AE0000F7E702440346934200D1704703F8011B61
:10AE1000F9E70000FEE700BFF8B500BFF8BC08BCCA
:10AE20009E467047F8B500BFF8BC08BC9E46704708
:10AE300001E08084642CB7A24B4F8A6E00001E7B19
:10AE4000711B00201F000000C11B00201F0000001C
:10AE5000526F6767656E436F726500C7CC1B000059
:10AE60000738FDD8704703EF080700028801E0AA01
:10AE70002200770000010101000000010101000033
:10AE80000000001002010000D4AE0100D4AE0100A9
:10AE900008000000D4AE0100E4AE0100080000008C
:10AEA000D4AE0100D4AE010008000000CCAE010019
:10AEB000D4AE010008000000CCAE0100CCAE010011
:0CAEC00008000000EC1A00200000000058
:08AECC00F994010000000000F0
:10AED4002DAC01000000000041AD010000000000A5
:08AEE4005CE3FF7F01000000A8
:10AEEC00FF00FFFFFFFFFFFF0090D00300000000FA
:10AEFC000000000000000000000000000000000046
:10AF0C000000000000000000000000000000000035
:10AF1C000000000000000000000000000000000025
:10AF2C000000000000000000000000000000000015
:10AF3C000000000000000000000000000000000005
:10AF4C00000000000000000000000000259201003D
:04AF5C00019201005D
:040000031000A1E95F
:00000001FF
